{
  "contractName": "Ratings",
  "abi": [
    {
      "constant": true,
      "inputs": [],
      "name": "movieList",
      "outputs": [
        {
          "name": "",
          "type": "string"
        }
      ],
      "payable": false,
      "stateMutability": "view",
      "type": "function"
    },
    {
      "inputs": [
        {
          "name": "name1",
          "type": "string"
        }
      ],
      "payable": false,
      "stateMutability": "nonpayable",
      "type": "constructor"
    },
    {
      "constant": false,
      "inputs": [
        {
          "name": "movie",
          "type": "string"
        }
      ],
      "name": "voteForMovie",
      "outputs": [],
      "payable": false,
      "stateMutability": "nonpayable",
      "type": "function"
    }
  ],
  "bytecode": "0x608060405234801561001057600080fd5b506040516104893803806104898339810180604052602081101561003357600080fd5b81019080805164010000000081111561004b57600080fd5b8281019050602081018481111561006157600080fd5b815185600182028301116401000000008211171561007e57600080fd5b5050929190505050806000908051906020019061009c9291906100a3565b5050610148565b828054600181600116156101000203166002900490600052602060002090601f016020900481019282601f106100e457805160ff1916838001178555610112565b82800160010185558215610112579182015b828111156101115782518255916020019190600101906100f6565b5b50905061011f9190610123565b5090565b61014591905b80821115610141576000816000905550600101610129565b5090565b90565b610332806101576000396000f3fe60806040526004361061004c576000357c0100000000000000000000000000000000000000000000000000000000900463ffffffff16806325a2960614610051578063a06914ff146100e1575b600080fd5b34801561005d57600080fd5b506100666101a9565b6040518080602001828103825283818151815260200191508051906020019080838360005b838110156100a657808201518184015260208101905061008b565b50505050905090810190601f1680156100d35780820380516001836020036101000a031916815260200191505b509250505060405180910390f35b3480156100ed57600080fd5b506101a76004803603602081101561010457600080fd5b810190808035906020019064010000000081111561012157600080fd5b82018360208201111561013357600080fd5b8035906020019184600183028401116401000000008311171561015557600080fd5b91908080601f016020809104026020016040519081016040528093929190818152602001838380828437600081840152601f19601f820116905080830192505050505050509192919290505050610247565b005b60008054600181600116156101000203166002900480601f01602080910402602001604051908101604052809291908181526020018280546001816001161561010002031660029004801561023f5780601f106102145761010080835404028352916020019161023f565b820191906000526020600020905b81548152906001019060200180831161022257829003601f168201915b505050505081565b806000908051906020019061025d929190610261565b5050565b828054600181600116156101000203166002900490600052602060002090601f016020900481019282601f106102a257805160ff19168380011785556102d0565b828001600101855582156102d0579182015b828111156102cf5782518255916020019190600101906102b4565b5b5090506102dd91906102e1565b5090565b61030391905b808211156102ff5760008160009055506001016102e7565b5090565b9056fea165627a7a72305820c4842fe2dadb4661809258e4df9a28e1581fcf961a265c65ef0778c64da7d5c60029",
  "source": "pragma solidity ^0.5.0;\r\n// We have to specify what version of compiler this code will compile with\r\n\r\ncontract Ratings {\r\n\r\n    string public movieList;\r\n\r\n    /* This is the constructor which will be called once when you\r\n    deploy the contract to the blockchain. When we deploy the contract,\r\n    we will pass an array of movies for which users will give ratings\r\n    */\r\n    constructor(string memory name1) public {\r\n        movieList = name1;\r\n    }\r\n    // This function increments the vote count for the specified movie. Equivalent to upvoting\r\n    function voteForMovie(string memory movie) public {\r\n        movieList = movie;\r\n    }\r\n}",
  "sourcePath": "F:/DAPP/contracts/Ratings.sol",
  "compiler": {
    "name": "solc",
    "version": "0.5.0+commit.1d4f565a.Emscripten.clang"
  },
  "schemaVersion": "3.0.9",
  "updatedAt": "2019-05-06T19:10:08.911Z",
  "devdoc": {
    "methods": {}
  },
  "userdoc": {
    "methods": {}
  }
}