{
  "contractName": "RentableParking",
  "abi": [
    {
      "constant": true,
      "inputs": [
        {
          "name": "id",
          "type": "uint256"
        }
      ],
      "name": "getClientLastname",
      "outputs": [
        {
          "name": "",
          "type": "string"
        }
      ],
      "payable": false,
      "stateMutability": "view",
      "type": "function"
    },
    {
      "constant": false,
      "inputs": [
        {
          "name": "_description",
          "type": "string"
        },
        {
          "name": "_pricePerDay",
          "type": "uint256"
        }
      ],
      "name": "addSpot",
      "outputs": [],
      "payable": false,
      "stateMutability": "nonpayable",
      "type": "function"
    },
    {
      "constant": true,
      "inputs": [
        {
          "name": "id",
          "type": "uint256"
        }
      ],
      "name": "getDescription",
      "outputs": [
        {
          "name": "",
          "type": "string"
        }
      ],
      "payable": false,
      "stateMutability": "view",
      "type": "function"
    },
    {
      "constant": true,
      "inputs": [
        {
          "name": "id",
          "type": "uint256"
        }
      ],
      "name": "isReclaimable",
      "outputs": [
        {
          "name": "",
          "type": "bool"
        }
      ],
      "payable": false,
      "stateMutability": "view",
      "type": "function"
    },
    {
      "constant": true,
      "inputs": [
        {
          "name": "id",
          "type": "uint256"
        }
      ],
      "name": "getPricePerDay",
      "outputs": [
        {
          "name": "",
          "type": "uint256"
        }
      ],
      "payable": false,
      "stateMutability": "view",
      "type": "function"
    },
    {
      "constant": true,
      "inputs": [
        {
          "name": "id",
          "type": "uint256"
        }
      ],
      "name": "getRemainingDays",
      "outputs": [
        {
          "name": "",
          "type": "uint256"
        }
      ],
      "payable": false,
      "stateMutability": "view",
      "type": "function"
    },
    {
      "constant": true,
      "inputs": [
        {
          "name": "id",
          "type": "uint256"
        }
      ],
      "name": "getClientFirstname",
      "outputs": [
        {
          "name": "",
          "type": "string"
        }
      ],
      "payable": false,
      "stateMutability": "view",
      "type": "function"
    },
    {
      "constant": true,
      "inputs": [],
      "name": "lastIndex",
      "outputs": [
        {
          "name": "",
          "type": "uint256"
        }
      ],
      "payable": false,
      "stateMutability": "view",
      "type": "function"
    },
    {
      "inputs": [],
      "payable": false,
      "stateMutability": "nonpayable",
      "type": "constructor"
    },
    {
      "anonymous": false,
      "inputs": [
        {
          "indexed": false,
          "name": "sumToPay",
          "type": "uint256"
        },
        {
          "indexed": false,
          "name": "receiver",
          "type": "address"
        },
        {
          "indexed": false,
          "name": "sender",
          "type": "address"
        }
      ],
      "name": "RentEvent",
      "type": "event"
    },
    {
      "constant": false,
      "inputs": [
        {
          "name": "id",
          "type": "uint256"
        }
      ],
      "name": "reclaimSpot",
      "outputs": [
        {
          "name": "",
          "type": "bool"
        }
      ],
      "payable": false,
      "stateMutability": "nonpayable",
      "type": "function"
    },
    {
      "constant": true,
      "inputs": [
        {
          "name": "id",
          "type": "uint256"
        }
      ],
      "name": "isRented",
      "outputs": [
        {
          "name": "",
          "type": "bool"
        }
      ],
      "payable": false,
      "stateMutability": "view",
      "type": "function"
    },
    {
      "constant": false,
      "inputs": [
        {
          "name": "id",
          "type": "uint256"
        },
        {
          "name": "_firstname",
          "type": "string"
        },
        {
          "name": "_lastname",
          "type": "string"
        },
        {
          "name": "_noDays",
          "type": "uint256"
        }
      ],
      "name": "rentASpot",
      "outputs": [
        {
          "name": "",
          "type": "bool"
        }
      ],
      "payable": true,
      "stateMutability": "payable",
      "type": "function"
    }
  ],
  "bytecode": "0x608060405234801561001057600080fd5b506000600181905550611229806100286000396000f3fe6080604052600436106100af576000357c0100000000000000000000000000000000000000000000000000000000900463ffffffff1680630a1667b4146100b45780632dad3451146101685780634925ec551461023a578063668db319146102ee5780638735386c14610341578063880413061461039057806395a9b50c146103df578063aa15d40f14610432578063b2fa60df14610485578063c7727bb014610603578063f3f6f0d7146106b7575b600080fd5b3480156100c057600080fd5b506100ed600480360360208110156100d757600080fd5b81019080803590602001909291905050506106e2565b6040518080602001828103825283818151815260200191508051906020019080838360005b8381101561012d578082015181840152602081019050610112565b50505050905090810190601f16801561015a5780820380516001836020036101000a031916815260200191505b509250505060405180910390f35b34801561017457600080fd5b506102386004803603604081101561018b57600080fd5b81019080803590602001906401000000008111156101a857600080fd5b8201836020820111156101ba57600080fd5b803590602001918460018302840111640100000000831117156101dc57600080fd5b91908080601f016020809104026020016040519081016040528093929190818152602001838380828437600081840152601f19601f8201169050808301925050505050505091929192908035906020019092919050505061079c565b005b34801561024657600080fd5b506102736004803603602081101561025d57600080fd5b810190808035906020019092919050505061099c565b6040518080602001828103825283818151815260200191508051906020019080838360005b838110156102b3578082015181840152602081019050610298565b50505050905090810190601f1680156102e05780820380516001836020036101000a031916815260200191505b509250505060405180910390f35b3480156102fa57600080fd5b506103276004803603602081101561031157600080fd5b8101908080359060200190929190505050610a53565b604051808215151515815260200191505060405180910390f35b34801561034d57600080fd5b5061037a6004803603602081101561036457600080fd5b8101908080359060200190929190505050610a9a565b6040518082815260200191505060405180910390f35b34801561039c57600080fd5b506103c9600480360360208110156103b357600080fd5b8101908080359060200190929190505050610ab9565b6040518082815260200191505060405180910390f35b3480156103eb57600080fd5b506104186004803603602081101561040257600080fd5b8101908080359060200190929190505050610b08565b604051808215151515815260200191505060405180910390f35b34801561043e57600080fd5b5061046b6004803603602081101561045557600080fd5b8101908080359060200190929190505050610d12565b604051808215151515815260200191505060405180910390f35b6105e96004803603608081101561049b57600080fd5b8101908080359060200190929190803590602001906401000000008111156104c257600080fd5b8201836020820111156104d457600080fd5b803590602001918460018302840111640100000000831117156104f657600080fd5b91908080601f016020809104026020016040519081016040528093929190818152602001838380828437600081840152601f19601f8201169050808301925050505050505091929192908035906020019064010000000081111561055957600080fd5b82018360208201111561056b57600080fd5b8035906020019184600183028401116401000000008311171561058d57600080fd5b91908080601f016020809104026020016040519081016040528093929190818152602001838380828437600081840152601f19601f82011690508083019250505050505050919291929080359060200190929190505050610d41565b604051808215151515815260200191505060405180910390f35b34801561060f57600080fd5b5061063c6004803603602081101561062657600080fd5b8101908080359060200190929190505050611049565b6040518080602001828103825283818151815260200191508051906020019080838360005b8381101561067c578082015181840152602081019050610661565b50505050905090810190601f1680156106a95780820380516001836020036101000a031916815260200191505b509250505060405180910390f35b3480156106c357600080fd5b506106cc611103565b6040518082815260200191505060405180910390f35b60606000808381526020019081526020016000206003016001018054600181600116156101000203166002900480601f0160208091040260200160405190810160405280929190818152602001828054600181600116156101000203166002900480156107905780601f1061076557610100808354040283529160200191610790565b820191906000526020600020905b81548152906001019060200180831161077357829003601f168201915b50505050509050919050565b6107a4611109565b60c060405190810160405280602060405190810160405280600081525081526020016020604051908101604052806000815250815260200160001515815260200142815260200160008152602001600073ffffffffffffffffffffffffffffffffffffffff1681525090506080604051908101604052803373ffffffffffffffffffffffffffffffffffffffff16815260200183815260200184815260200182815250600080600154815260200190815260200160002060008201518160000160006101000a81548173ffffffffffffffffffffffffffffffffffffffff021916908373ffffffffffffffffffffffffffffffffffffffff1602179055506020820151816001015560408201518160020190805190602001906108c8929190611158565b5060608201518160030160008201518160000190805190602001906108ee929190611158565b50602082015181600101908051906020019061090b929190611158565b5060408201518160020160006101000a81548160ff021916908315150217905550606082015181600301556080820151816004015560a08201518160050160006101000a81548173ffffffffffffffffffffffffffffffffffffffff021916908373ffffffffffffffffffffffffffffffffffffffff16021790555050509050506001805401600181905550505050565b60606000808381526020019081526020016000206002018054600181600116156101000203166002900480601f016020809104026020016040519081016040528092919081815260200182805460018160011615610100020316600290048015610a475780601f10610a1c57610100808354040283529160200191610a47565b820191906000526020600020905b815481529060010190602001808311610a2a57829003601f168201915b50505050509050919050565b600080600a90506000808481526020019081526020016000206003016004015481026000808581526020019081526020016000206003016003015442031015915050919050565b6000806000838152602001908152602001600020600101549050919050565b600080600a905080600080858152602001908152602001600020600301600301544203811515610ae557fe5b046000808581526020019081526020016000206003016004015403915050919050565b600080600083815260200190815260200160002060000160009054906101000a900473ffffffffffffffffffffffffffffffffffffffff163373ffffffffffffffffffffffffffffffffffffffff168173ffffffffffffffffffffffffffffffffffffffff16141515610b7a57600080fd5b826000600a905060008083815260200190815260200160002060030160040154810260008084815260200190815260200160002060030160030154420310151515610bc457600080fd5b610bcc611109565b60c060405190810160405280602060405190810160405280600081525081526020016020604051908101604052806000815250815260200160001515815260200142815260200160008152602001600073ffffffffffffffffffffffffffffffffffffffff168152509050806000808881526020019081526020016000206003016000820151816000019080519060200190610c69929190611158565b506020820151816001019080519060200190610c86929190611158565b5060408201518160020160006101000a81548160ff021916908315150217905550606082015181600301556080820151816004015560a08201518160050160006101000a81548173ffffffffffffffffffffffffffffffffffffffff021916908373ffffffffffffffffffffffffffffffffffffffff1602179055509050506001945050505050919050565b600080600083815260200190815260200160002060030160020160009054906101000a900460ff169050919050565b600084610d4d81610d12565b151515610d5957600080fd5b6000806000888152602001908152602001600020600101548402905080341015610d8257600080fd5b610d8a611109565b60c0604051908101604052808881526020018781526020016001151581526020014281526020018681526020013373ffffffffffffffffffffffffffffffffffffffff168152509050806000808a81526020019081526020016000206003016000820151816000019080519060200190610e05929190611158565b506020820151816001019080519060200190610e22929190611158565b5060408201518160020160006101000a81548160ff021916908315150217905550606082015181600301556080820151816004015560a08201518160050160006101000a81548173ffffffffffffffffffffffffffffffffffffffff021916908373ffffffffffffffffffffffffffffffffffffffff16021790555090505060008089815260200190815260200160002060000160009054906101000a900473ffffffffffffffffffffffffffffffffffffffff1673ffffffffffffffffffffffffffffffffffffffff166108fc839081150290604051600060405180830381858888f19350505050158015610f1c573d6000803e3d6000fd5b503373ffffffffffffffffffffffffffffffffffffffff166108fc8334039081150290604051600060405180830381858888f19350505050158015610f65573d6000803e3d6000fd5b507f738ec68dc64fabb4ab360d1d025d2b989f5d9dedcf384033e7423b41606efabc826000808b815260200190815260200160002060000160009054906101000a900473ffffffffffffffffffffffffffffffffffffffff1633604051808481526020018373ffffffffffffffffffffffffffffffffffffffff1673ffffffffffffffffffffffffffffffffffffffff1681526020018273ffffffffffffffffffffffffffffffffffffffff1673ffffffffffffffffffffffffffffffffffffffff168152602001935050505060405180910390a160019350505050949350505050565b60606000808381526020019081526020016000206003016000018054600181600116156101000203166002900480601f0160208091040260200160405190810160405280929190818152602001828054600181600116156101000203166002900480156110f75780601f106110cc576101008083540402835291602001916110f7565b820191906000526020600020905b8154815290600101906020018083116110da57829003601f168201915b50505050509050919050565b60015481565b60c06040519081016040528060608152602001606081526020016000151581526020016000815260200160008152602001600073ffffffffffffffffffffffffffffffffffffffff1681525090565b828054600181600116156101000203166002900490600052602060002090601f016020900481019282601f1061119957805160ff19168380011785556111c7565b828001600101855582156111c7579182015b828111156111c65782518255916020019190600101906111ab565b5b5090506111d491906111d8565b5090565b6111fa91905b808211156111f65760008160009055506001016111de565b5090565b9056fea165627a7a72305820f9e56217b7a4a0c9cede64cb422c99097fac44230d3589e6e1896cfee375a0f40029",
  "source": "pragma solidity ^0.5.0;\r\n\r\nimport \"./SpotsStorage.sol\";\r\n\r\ncontract RentableParking is SpotsStorage{\r\n\r\nconstructor() public{\r\n}\r\n    modifier onlyBy(address owner){\r\n        require(owner == msg.sender);\r\n        _;\r\n    }\r\n    modifier itsTime(uint id){\r\n        uint day = 10;\r\n        require(now-spotsStorage[id].client.startDate>=day*spotsStorage[id].client.noDays);\r\n        _;\r\n    }\r\n    function reclaimSpot(uint id) public onlyBy(spotsStorage[id].owner) itsTime(id) returns(bool){\r\n        Client memory dummyClient = Client({firstname : \"\", lastname : \"\", exists : false, startDate : now, noDays : 0, owner : address(0)});\r\n        spotsStorage[id].client = dummyClient;\r\n        return true;\r\n    }\r\n    function isRented(uint id) public view returns(bool){\r\n        return spotsStorage[id].client.exists;\r\n    }\r\n    modifier isNotRented(uint id){\r\n        require(!isRented(id));\r\n        _;\r\n    }\r\n    event RentEvent(uint sumToPay,address receiver, address sender);\r\n    function rentASpot(uint id,string memory _firstname,string memory _lastname,uint _noDays)public isNotRented(id) payable returns (bool){\r\n        uint sumToPay = _noDays * spotsStorage[id].pricePerDay;\r\n        if (msg.value < sumToPay)\r\n        {\r\n            revert();\r\n            return false;\r\n        }\r\n        Client memory dummyClient = Client({firstname : _firstname, lastname : _lastname, exists : true, startDate : now, noDays : _noDays, owner : msg.sender});\r\n        spotsStorage[id].client = dummyClient;\r\n        spotsStorage[id].owner.transfer(sumToPay);\r\n        msg.sender.transfer(msg.value-sumToPay);\r\n        emit RentEvent(sumToPay,spotsStorage[id].owner,msg.sender);\r\n        return true;\r\n    }\r\n}\r\n",
  "sourcePath": "F:/DAPP/contracts/RentableParking.sol",
  "compiler": {
    "name": "solc",
    "version": "0.5.0+commit.1d4f565a.Emscripten.clang"
  },
  "schemaVersion": "3.0.9",
  "updatedAt": "2019-05-06T19:10:08.936Z",
  "devdoc": {
    "methods": {}
  },
  "userdoc": {
    "methods": {}
  }
}