{
  "contractName": "SpotsStorage",
  "abi": [
    {
      "constant": true,
      "inputs": [],
      "name": "lastIndex",
      "outputs": [
        {
          "name": "",
          "type": "uint256"
        }
      ],
      "payable": false,
      "stateMutability": "view",
      "type": "function"
    },
    {
      "inputs": [],
      "payable": false,
      "stateMutability": "nonpayable",
      "type": "constructor"
    },
    {
      "constant": false,
      "inputs": [
        {
          "name": "_description",
          "type": "string"
        },
        {
          "name": "_pricePerDay",
          "type": "uint256"
        }
      ],
      "name": "addSpot",
      "outputs": [],
      "payable": false,
      "stateMutability": "nonpayable",
      "type": "function"
    },
    {
      "constant": true,
      "inputs": [
        {
          "name": "id",
          "type": "uint256"
        }
      ],
      "name": "getDescription",
      "outputs": [
        {
          "name": "",
          "type": "string"
        }
      ],
      "payable": false,
      "stateMutability": "view",
      "type": "function"
    },
    {
      "constant": true,
      "inputs": [
        {
          "name": "id",
          "type": "uint256"
        }
      ],
      "name": "getPricePerDay",
      "outputs": [
        {
          "name": "",
          "type": "uint256"
        }
      ],
      "payable": false,
      "stateMutability": "view",
      "type": "function"
    },
    {
      "constant": true,
      "inputs": [
        {
          "name": "id",
          "type": "uint256"
        }
      ],
      "name": "isReclaimable",
      "outputs": [
        {
          "name": "",
          "type": "bool"
        }
      ],
      "payable": false,
      "stateMutability": "view",
      "type": "function"
    },
    {
      "constant": true,
      "inputs": [
        {
          "name": "id",
          "type": "uint256"
        }
      ],
      "name": "getClientFirstname",
      "outputs": [
        {
          "name": "",
          "type": "string"
        }
      ],
      "payable": false,
      "stateMutability": "view",
      "type": "function"
    },
    {
      "constant": true,
      "inputs": [
        {
          "name": "id",
          "type": "uint256"
        }
      ],
      "name": "getClientLastname",
      "outputs": [
        {
          "name": "",
          "type": "string"
        }
      ],
      "payable": false,
      "stateMutability": "view",
      "type": "function"
    },
    {
      "constant": true,
      "inputs": [
        {
          "name": "id",
          "type": "uint256"
        }
      ],
      "name": "getRemainingDays",
      "outputs": [
        {
          "name": "",
          "type": "uint256"
        }
      ],
      "payable": false,
      "stateMutability": "view",
      "type": "function"
    }
  ],
  "bytecode": "0x608060405234801561001057600080fd5b506000600181905550610aa3806100286000396000f3fe60806040526004361061008e576000357c0100000000000000000000000000000000000000000000000000000000900463ffffffff1680630a1667b4146100935780632dad3451146101475780634925ec5514610219578063668db319146102cd5780638735386c14610320578063880413061461036f578063c7727bb0146103be578063f3f6f0d714610472575b600080fd5b34801561009f57600080fd5b506100cc600480360360208110156100b657600080fd5b810190808035906020019092919050505061049d565b6040518080602001828103825283818151815260200191508051906020019080838360005b8381101561010c5780820151818401526020810190506100f1565b50505050905090810190601f1680156101395780820380516001836020036101000a031916815260200191505b509250505060405180910390f35b34801561015357600080fd5b506102176004803603604081101561016a57600080fd5b810190808035906020019064010000000081111561018757600080fd5b82018360208201111561019957600080fd5b803590602001918460018302840111640100000000831117156101bb57600080fd5b91908080601f016020809104026020016040519081016040528093929190818152602001838380828437600081840152601f19601f82011690508083019250505050505050919291929080359060200190929190505050610557565b005b34801561022557600080fd5b506102526004803603602081101561023c57600080fd5b8101908080359060200190929190505050610757565b6040518080602001828103825283818151815260200191508051906020019080838360005b83811015610292578082015181840152602081019050610277565b50505050905090810190601f1680156102bf5780820380516001836020036101000a031916815260200191505b509250505060405180910390f35b3480156102d957600080fd5b50610306600480360360208110156102f057600080fd5b810190808035906020019092919050505061080e565b604051808215151515815260200191505060405180910390f35b34801561032c57600080fd5b506103596004803603602081101561034357600080fd5b8101908080359060200190929190505050610855565b6040518082815260200191505060405180910390f35b34801561037b57600080fd5b506103a86004803603602081101561039257600080fd5b8101908080359060200190929190505050610874565b6040518082815260200191505060405180910390f35b3480156103ca57600080fd5b506103f7600480360360208110156103e157600080fd5b81019080803590602001909291905050506108c3565b6040518080602001828103825283818151815260200191508051906020019080838360005b8381101561043757808201518184015260208101905061041c565b50505050905090810190601f1680156104645780820380516001836020036101000a031916815260200191505b509250505060405180910390f35b34801561047e57600080fd5b5061048761097d565b6040518082815260200191505060405180910390f35b60606000808381526020019081526020016000206003016001018054600181600116156101000203166002900480601f01602080910402602001604051908101604052809291908181526020018280546001816001161561010002031660029004801561054b5780601f106105205761010080835404028352916020019161054b565b820191906000526020600020905b81548152906001019060200180831161052e57829003601f168201915b50505050509050919050565b61055f610983565b60c060405190810160405280602060405190810160405280600081525081526020016020604051908101604052806000815250815260200160001515815260200142815260200160008152602001600073ffffffffffffffffffffffffffffffffffffffff1681525090506080604051908101604052803373ffffffffffffffffffffffffffffffffffffffff16815260200183815260200184815260200182815250600080600154815260200190815260200160002060008201518160000160006101000a81548173ffffffffffffffffffffffffffffffffffffffff021916908373ffffffffffffffffffffffffffffffffffffffff1602179055506020820151816001015560408201518160020190805190602001906106839291906109d2565b5060608201518160030160008201518160000190805190602001906106a99291906109d2565b5060208201518160010190805190602001906106c69291906109d2565b5060408201518160020160006101000a81548160ff021916908315150217905550606082015181600301556080820151816004015560a08201518160050160006101000a81548173ffffffffffffffffffffffffffffffffffffffff021916908373ffffffffffffffffffffffffffffffffffffffff16021790555050509050506001805401600181905550505050565b60606000808381526020019081526020016000206002018054600181600116156101000203166002900480601f0160208091040260200160405190810160405280929190818152602001828054600181600116156101000203166002900480156108025780601f106107d757610100808354040283529160200191610802565b820191906000526020600020905b8154815290600101906020018083116107e557829003601f168201915b50505050509050919050565b600080600a90506000808481526020019081526020016000206003016004015481026000808581526020019081526020016000206003016003015442031015915050919050565b6000806000838152602001908152602001600020600101549050919050565b600080600a9050806000808581526020019081526020016000206003016003015442038115156108a057fe5b046000808581526020019081526020016000206003016004015403915050919050565b60606000808381526020019081526020016000206003016000018054600181600116156101000203166002900480601f0160208091040260200160405190810160405280929190818152602001828054600181600116156101000203166002900480156109715780601f1061094657610100808354040283529160200191610971565b820191906000526020600020905b81548152906001019060200180831161095457829003601f168201915b50505050509050919050565b60015481565b60c06040519081016040528060608152602001606081526020016000151581526020016000815260200160008152602001600073ffffffffffffffffffffffffffffffffffffffff1681525090565b828054600181600116156101000203166002900490600052602060002090601f016020900481019282601f10610a1357805160ff1916838001178555610a41565b82800160010185558215610a41579182015b82811115610a40578251825591602001919060010190610a25565b5b509050610a4e9190610a52565b5090565b610a7491905b80821115610a70576000816000905550600101610a58565b5090565b9056fea165627a7a723058201109fd6bfae0d6491886fcb1411dc54d0eb87a976a794e57a1953871bcfa8b130029",
  "source": "pragma solidity ^0.5.0;\r\n\r\ncontract SpotsStorage {\r\n    struct Client {\r\n        string firstname;\r\n        string lastname;\r\n        bool exists;\r\n        uint startDate;\r\n        uint noDays;\r\n        address owner;\r\n    }\r\n\r\n    struct Parking {\r\n        address payable owner;\r\n        uint pricePerDay;\r\n        string description;\r\n        Client client;\r\n    }\r\n    constructor() public{\r\n        lastIndex = 0;\r\n    }\r\n    mapping(uint => Parking) spotsStorage;\r\n    uint public lastIndex;\r\n\r\n    function addSpot(string memory _description, uint _pricePerDay) public{\r\n        Client memory dummyClient = Client({firstname : \"\", lastname : \"\", exists : false, startDate : now, noDays : 0, owner : address(0)});\r\n        spotsStorage[lastIndex] = Parking({owner : msg.sender, pricePerDay : _pricePerDay, description : _description, client : dummyClient});\r\n        lastIndex = lastIndex + 1;\r\n    }\r\n    function getDescription(uint id) public view returns(string memory){\r\n        return spotsStorage[id].description;\r\n    }\r\n    function getPricePerDay(uint id) public view returns(uint){\r\n        return spotsStorage[id].pricePerDay;\r\n    }\r\n    function isReclaimable(uint id) public view returns(bool){\r\n        uint day = 10;\r\n        return (now-spotsStorage[id].client.startDate)>=day*spotsStorage[id].client.noDays;\r\n    }\r\n    function getClientFirstname(uint id) public view returns(string memory){\r\n        return spotsStorage[id].client.firstname;\r\n    }\r\n    function getClientLastname(uint id) public view returns(string memory){\r\n        return spotsStorage[id].client.lastname;\r\n    }\r\n    function getRemainingDays(uint id) public view returns(uint){\r\n        uint day = 10;\r\n        return spotsStorage[id].client.noDays-(now-spotsStorage[id].client.startDate)/day;\r\n    }\r\n\r\n}\r\n",
  "sourcePath": "F:\\DAPP\\contracts\\SpotsStorage.sol",
  "compiler": {
    "name": "solc",
    "version": "0.5.0+commit.1d4f565a.Emscripten.clang"
  },
  "schemaVersion": "3.0.9",
  "updatedAt": "2019-05-07T16:00:56.178Z",
  "devdoc": {
    "methods": {}
  },
  "userdoc": {
    "methods": {}
  }
}