{
  "contractName": "Client",
  "abi": [
    {
      "inputs": [
        {
          "name": "_firstname",
          "type": "string"
        },
        {
          "name": "_lastname",
          "type": "string"
        },
        {
          "name": "_noDays",
          "type": "uint256"
        },
        {
          "name": "_owner",
          "type": "address"
        },
        {
          "name": "_exists",
          "type": "bool"
        }
      ],
      "payable": false,
      "stateMutability": "nonpayable",
      "type": "constructor"
    },
    {
      "constant": false,
      "inputs": [],
      "name": "checkExists",
      "outputs": [
        {
          "name": "",
          "type": "bool"
        }
      ],
      "payable": false,
      "stateMutability": "nonpayable",
      "type": "function"
    },
    {
      "constant": false,
      "inputs": [],
      "name": "getAddress",
      "outputs": [
        {
          "name": "",
          "type": "address"
        }
      ],
      "payable": false,
      "stateMutability": "nonpayable",
      "type": "function"
    }
  ],
  "bytecode": "0x608060405234801561001057600080fd5b5060405161038f38038061038f833981018060405260a081101561003357600080fd5b81019080805164010000000081111561004b57600080fd5b8281019050602081018481111561006157600080fd5b815185600182028301116401000000008211171561007e57600080fd5b5050929190602001805164010000000081111561009a57600080fd5b828101905060208101848111156100b057600080fd5b81518560018202830111640100000000821117156100cd57600080fd5b5050929190602001805190602001909291908051906020019092919080519060200190929190505050846000908051906020019061010c929190610197565b508360019080519060200190610123929190610197565b5080600260006101000a81548160ff0219169083151502179055508260048190555081600560006101000a81548173ffffffffffffffffffffffffffffffffffffffff021916908373ffffffffffffffffffffffffffffffffffffffff16021790555042600381905550505050505061023c565b828054600181600116156101000203166002900490600052602060002090601f016020900481019282601f106101d857805160ff1916838001178555610206565b82800160010185558215610206579182015b828111156102055782518255916020019190600101906101ea565b5b5090506102139190610217565b5090565b61023991905b8082111561023557600081600090555060010161021d565b5090565b90565b6101448061024b6000396000f3fe60806040526004361061004c576000357c0100000000000000000000000000000000000000000000000000000000900463ffffffff1680631d57a64f1461005157806338cc483114610080575b600080fd5b34801561005d57600080fd5b506100666100d7565b604051808215151515815260200191505060405180910390f35b34801561008c57600080fd5b506100956100ee565b604051808273ffffffffffffffffffffffffffffffffffffffff1673ffffffffffffffffffffffffffffffffffffffff16815260200191505060405180910390f35b6000600260009054906101000a900460ff16905090565b6000600560009054906101000a900473ffffffffffffffffffffffffffffffffffffffff1690509056fea165627a7a723058201a9ef42e5b0c95a722031edcf89330a61d663830617aff60b47f790e5fa866820029",
  "source": "pragma solidity ^0.5.0;\r\n\r\ncontract Client {\r\n    string firstname;\r\n    string lastname;\r\n    bool exists;\r\n    uint startDate;\r\n    uint noDays;\r\n    address owner;\r\n\r\n    constructor(string memory _firstname,string memory _lastname,uint _noDays,address _owner,bool _exists) public{\r\n        firstname = _firstname;\r\n        lastname = _lastname;\r\n        exists = _exists;\r\n        noDays = _noDays;\r\n        owner = _owner;\r\n        startDate = now;\r\n\r\n    }\r\n    function checkExists() public returns(bool){\r\n        return exists;\r\n    }\r\n    function getAddress() public returns(address){\r\n        return owner;\r\n    }\r\n}\r\n",
  "sourcePath": "F:\\DAPP\\contracts\\Client.sol",
  "compiler": {
    "name": "solc",
    "version": "0.5.0+commit.1d4f565a.Emscripten.clang"
  },
  "schemaVersion": "3.0.9",
  "updatedAt": "2019-05-04T20:45:56.773Z",
  "devdoc": {
    "methods": {}
  },
  "userdoc": {
    "methods": {}
  }
}