{
  "contractName": "Parking",
  "abi": [
    {
      "inputs": [
        {
          "name": "_description",
          "type": "string"
        },
        {
          "name": "_pricePerDay",
          "type": "uint256"
        },
        {
          "name": "_sender",
          "type": "address"
        }
      ],
      "payable": true,
      "stateMutability": "payable",
      "type": "constructor"
    },
    {
      "constant": false,
      "inputs": [],
      "name": "isRented",
      "outputs": [
        {
          "name": "",
          "type": "bool"
        }
      ],
      "payable": false,
      "stateMutability": "nonpayable",
      "type": "function"
    },
    {
      "constant": false,
      "inputs": [
        {
          "name": "newValue",
          "type": "uint256"
        },
        {
          "name": "sender",
          "type": "address"
        }
      ],
      "name": "setPricePerDay",
      "outputs": [
        {
          "name": "",
          "type": "bool"
        }
      ],
      "payable": false,
      "stateMutability": "nonpayable",
      "type": "function"
    },
    {
      "constant": false,
      "inputs": [
        {
          "name": "_client",
          "type": "address"
        }
      ],
      "name": "setClient",
      "outputs": [],
      "payable": false,
      "stateMutability": "nonpayable",
      "type": "function"
    },
    {
      "constant": false,
      "inputs": [],
      "name": "getClient",
      "outputs": [
        {
          "name": "",
          "type": "address"
        }
      ],
      "payable": false,
      "stateMutability": "nonpayable",
      "type": "function"
    },
    {
      "constant": false,
      "inputs": [],
      "name": "getPricePerDay",
      "outputs": [
        {
          "name": "",
          "type": "uint256"
        }
      ],
      "payable": false,
      "stateMutability": "nonpayable",
      "type": "function"
    },
    {
      "constant": false,
      "inputs": [],
      "name": "getOwner",
      "outputs": [
        {
          "name": "",
          "type": "address"
        }
      ],
      "payable": false,
      "stateMutability": "nonpayable",
      "type": "function"
    }
  ],
  "bytecode": "0x6080604052604051610a72380380610a728339810180604052606081101561002657600080fd5b81019080805164010000000081111561003e57600080fd5b8281019050602081018481111561005457600080fd5b815185600182028301116401000000008211171561007157600080fd5b50509291906020018051906020019092919080519060200190929190505050806000806101000a81548173ffffffffffffffffffffffffffffffffffffffff021916908373ffffffffffffffffffffffffffffffffffffffff1602179055508160018190555082600290805190602001906100ed9291906101d0565b5060008060006100fb610250565b8080602001806020018681526020018573ffffffffffffffffffffffffffffffffffffffff1673ffffffffffffffffffffffffffffffffffffffff1681526020018415151515815260200183810383526000815260200160200183810382526000815260200160200195505050505050604051809103906000f080158015610187573d6000803e3d6000fd5b50600360006101000a81548173ffffffffffffffffffffffffffffffffffffffff021916908373ffffffffffffffffffffffffffffffffffffffff160217905550505050610285565b828054600181600116156101000203166002900490600052602060002090601f016020900481019282601f1061021157805160ff191683800117855561023f565b8280016001018555821561023f579182015b8281111561023e578251825591602001919060010190610223565b5b50905061024c9190610260565b5090565b60405161038f806106e383390190565b61028291905b8082111561027e576000816000905550600101610266565b5090565b90565b61044f806102946000396000f3fe608060405260043610610077576000357c0100000000000000000000000000000000000000000000000000000000900463ffffffff16806252904d1461007c57806359dc735c146100a75780638526690a146100fe578063893d20e81461014f578063a6304952146101a6578063d7e8dd22146101d5575b600080fd5b34801561008857600080fd5b50610091610248565b6040518082815260200191505060405180910390f35b3480156100b357600080fd5b506100bc610252565b604051808273ffffffffffffffffffffffffffffffffffffffff1673ffffffffffffffffffffffffffffffffffffffff16815260200191505060405180910390f35b34801561010a57600080fd5b5061014d6004803603602081101561012157600080fd5b81019080803573ffffffffffffffffffffffffffffffffffffffff16906020019092919050505061027c565b005b34801561015b57600080fd5b506101646102c0565b604051808273ffffffffffffffffffffffffffffffffffffffff1673ffffffffffffffffffffffffffffffffffffffff16815260200191505060405180910390f35b3480156101b257600080fd5b506101bb6102e9565b604051808215151515815260200191505060405180910390f35b3480156101e157600080fd5b5061022e600480360360408110156101f857600080fd5b8101908080359060200190929190803573ffffffffffffffffffffffffffffffffffffffff1690602001909291905050506103b1565b604051808215151515815260200191505060405180910390f35b6000600154905090565b6000600360009054906101000a900473ffffffffffffffffffffffffffffffffffffffff16905090565b80600360006101000a81548173ffffffffffffffffffffffffffffffffffffffff021916908373ffffffffffffffffffffffffffffffffffffffff16021790555050565b60008060009054906101000a900473ffffffffffffffffffffffffffffffffffffffff16905090565b6000600360009054906101000a900473ffffffffffffffffffffffffffffffffffffffff1673ffffffffffffffffffffffffffffffffffffffff16631d57a64f6040518163ffffffff167c0100000000000000000000000000000000000000000000000000000000028152600401602060405180830381600087803b15801561037157600080fd5b505af1158015610385573d6000803e3d6000fd5b505050506040513d602081101561039b57600080fd5b8101908080519060200190929190505050905090565b60008173ffffffffffffffffffffffffffffffffffffffff166000809054906101000a900473ffffffffffffffffffffffffffffffffffffffff1673ffffffffffffffffffffffffffffffffffffffff16141561041857826001819055506001905061041d565b600090505b9291505056fea165627a7a72305820a36a12c1e0074cacd3cbfeff880920acadae7fb9233a59f7ae22de75a150eb4e0029608060405234801561001057600080fd5b5060405161038f38038061038f833981018060405260a081101561003357600080fd5b81019080805164010000000081111561004b57600080fd5b8281019050602081018481111561006157600080fd5b815185600182028301116401000000008211171561007e57600080fd5b5050929190602001805164010000000081111561009a57600080fd5b828101905060208101848111156100b057600080fd5b81518560018202830111640100000000821117156100cd57600080fd5b5050929190602001805190602001909291908051906020019092919080519060200190929190505050846000908051906020019061010c929190610197565b508360019080519060200190610123929190610197565b5080600260006101000a81548160ff0219169083151502179055508260048190555081600560006101000a81548173ffffffffffffffffffffffffffffffffffffffff021916908373ffffffffffffffffffffffffffffffffffffffff16021790555042600381905550505050505061023c565b828054600181600116156101000203166002900490600052602060002090601f016020900481019282601f106101d857805160ff1916838001178555610206565b82800160010185558215610206579182015b828111156102055782518255916020019190600101906101ea565b5b5090506102139190610217565b5090565b61023991905b8082111561023557600081600090555060010161021d565b5090565b90565b6101448061024b6000396000f3fe60806040526004361061004c576000357c0100000000000000000000000000000000000000000000000000000000900463ffffffff1680631d57a64f1461005157806338cc483114610080575b600080fd5b34801561005d57600080fd5b506100666100d7565b604051808215151515815260200191505060405180910390f35b34801561008c57600080fd5b506100956100ee565b604051808273ffffffffffffffffffffffffffffffffffffffff1673ffffffffffffffffffffffffffffffffffffffff16815260200191505060405180910390f35b6000600260009054906101000a900460ff16905090565b6000600560009054906101000a900473ffffffffffffffffffffffffffffffffffffffff1690509056fea165627a7a723058201a9ef42e5b0c95a722031edcf89330a61d663830617aff60b47f790e5fa866820029",
  "source": "pragma solidity ^0.5.0;\r\n\r\nimport \"./Client.sol\";\r\n\r\ncontract Parking{\r\n    address payable owner;\r\n    uint pricePerDay;\r\n    string description;\r\n    Client client;\r\n\r\n    constructor(string memory _description, uint _pricePerDay,address payable _sender) payable public{\r\n        owner = _sender;\r\n        pricePerDay = _pricePerDay;\r\n        description = _description;\r\n        client = new Client(\"\",\"\",0,address (0),false);\r\n\r\n    }\r\n\r\n    function isRented() public returns(bool){\r\n        return client.checkExists();\r\n    }\r\n    function setPricePerDay(uint newValue,address sender) public returns(bool){\r\n        if(owner == sender){\r\n            pricePerDay = newValue;\r\n            return true;\r\n        }\r\n        return false;\r\n    }\r\n    function setClient(Client _client) public{\r\n        client = _client;\r\n    }\r\n    function getClient() public returns(Client){\r\n        return client;\r\n    }\r\n    function getPricePerDay() public returns(uint){\r\n        return pricePerDay;\r\n    }\r\n    function getOwner() public returns(address payable){\r\n        return owner;\r\n    }\r\n}",
  "sourcePath": "F:\\DAPP\\contracts\\Parking.sol",
  "compiler": {
    "name": "solc",
    "version": "0.5.0+commit.1d4f565a.Emscripten.clang"
  },
  "schemaVersion": "3.0.9",
  "updatedAt": "2019-05-04T20:45:56.786Z",
  "devdoc": {
    "methods": {}
  },
  "userdoc": {
    "methods": {}
  }
}