{
  "contractName": "RentableParking",
  "abi": [
    {
      "inputs": [],
      "payable": false,
      "stateMutability": "nonpayable",
      "type": "constructor"
    },
    {
      "constant": false,
      "inputs": [
        {
          "name": "id",
          "type": "uint256"
        },
        {
          "name": "description",
          "type": "string"
        },
        {
          "name": "pricePerDay",
          "type": "uint256"
        }
      ],
      "name": "registerParking",
      "outputs": [
        {
          "name": "",
          "type": "bool"
        }
      ],
      "payable": false,
      "stateMutability": "nonpayable",
      "type": "function"
    },
    {
      "constant": false,
      "inputs": [
        {
          "name": "id",
          "type": "uint256"
        }
      ],
      "name": "unregisterParking",
      "outputs": [
        {
          "name": "",
          "type": "bool"
        }
      ],
      "payable": false,
      "stateMutability": "nonpayable",
      "type": "function"
    },
    {
      "constant": false,
      "inputs": [
        {
          "name": "id",
          "type": "uint256"
        },
        {
          "name": "firstname",
          "type": "string"
        },
        {
          "name": "lastname",
          "type": "string"
        },
        {
          "name": "noDays",
          "type": "uint256"
        }
      ],
      "name": "rentParking",
      "outputs": [
        {
          "name": "",
          "type": "bool"
        }
      ],
      "payable": true,
      "stateMutability": "payable",
      "type": "function"
    }
  ],
  "bytecode": "0x608060405234801561001057600080fd5b506119ba806100206000396000f3fe608060405260043610610057576000357c0100000000000000000000000000000000000000000000000000000000900463ffffffff168063dd1bd7381461005c578063efedb8f614610150578063f54f6438146101a3575b600080fd5b34801561006857600080fd5b506101366004803603606081101561007f57600080fd5b8101908080359060200190929190803590602001906401000000008111156100a657600080fd5b8201836020820111156100b857600080fd5b803590602001918460018302840111640100000000831117156100da57600080fd5b91908080601f016020809104026020016040519081016040528093929190818152602001838380828437600081840152601f19601f82011690508083019250505050505050919291929080359060200190929190505050610321565b604051808215151515815260200191505060405180910390f35b34801561015c57600080fd5b506101896004803603602081101561017357600080fd5b81019080803590602001909291905050506104ab565b604051808215151515815260200191505060405180910390f35b610307600480360360808110156101b957600080fd5b8101908080359060200190929190803590602001906401000000008111156101e057600080fd5b8201836020820111156101f257600080fd5b8035906020019184600183028401116401000000008311171561021457600080fd5b91908080601f016020809104026020016040519081016040528093929190818152602001838380828437600081840152601f19601f8201169050808301925050505050505091929192908035906020019064010000000081111561027757600080fd5b82018360208201111561028957600080fd5b803590602001918460018302840111640100000000831117156102ab57600080fd5b91908080601f016020809104026020016040519081016040528093929190818152602001838380828437600081840152601f19601f82011690508083019250505050505050919291929080359060200190929190505050610650565b604051808215151515815260200191505060405180910390f35b60006001600085815260200190815260200160002060009054906101000a900460ff16151561049f57828233610355610b6d565b80806020018481526020018373ffffffffffffffffffffffffffffffffffffffff1673ffffffffffffffffffffffffffffffffffffffff168152602001828103825285818151815260200191508051906020019080838360005b838110156103ca5780820151818401526020810190506103af565b50505050905090810190601f1680156103f75780820380516001836020036101000a031916815260200191505b50945050505050604051809103906000f08015801561041a573d6000803e3d6000fd5b5060008086815260200190815260200160002060006101000a81548173ffffffffffffffffffffffffffffffffffffffff021916908373ffffffffffffffffffffffffffffffffffffffff160217905550600180600086815260200190815260200160002060006101000a81548160ff021916908315150217905550600190506104a4565b600090505b9392505050565b60006001600083815260200190815260200160002060009054906101000a900460ff1680156105a7575060008083815260200190815260200160002060009054906101000a900473ffffffffffffffffffffffffffffffffffffffff1673ffffffffffffffffffffffffffffffffffffffff1663a63049526040518163ffffffff167c0100000000000000000000000000000000000000000000000000000000028152600401602060405180830381600087803b15801561056b57600080fd5b505af115801561057f573d6000803e3d6000fd5b505050506040513d602081101561059557600080fd5b81019080805190602001909291905050505b156105b5576000905061064b565b6001600083815260200190815260200160002060009054906101000a900460ff1615156105e5576000905061064b565b60008083815260200190815260200160002060006101000a81549073ffffffffffffffffffffffffffffffffffffffff021916905560006001600084815260200190815260200160002060006101000a81548160ff021916908315150217905550600190505b919050565b600080600086815260200190815260200160002060009054906101000a900473ffffffffffffffffffffffffffffffffffffffff1673ffffffffffffffffffffffffffffffffffffffff1663a63049526040518163ffffffff167c0100000000000000000000000000000000000000000000000000000000028152600401602060405180830381600087803b1580156106e857600080fd5b505af11580156106fc573d6000803e3d6000fd5b505050506040513d602081101561071257600080fd5b8101908080519060200190929190505050156107315760009050610b65565b600080600087815260200190815260200160002060009054906101000a900473ffffffffffffffffffffffffffffffffffffffff1673ffffffffffffffffffffffffffffffffffffffff166252904d6040518163ffffffff167c0100000000000000000000000000000000000000000000000000000000028152600401602060405180830381600087803b1580156107c857600080fd5b505af11580156107dc573d6000803e3d6000fd5b505050506040513d60208110156107f257600080fd5b81019080805190602001909291905050508302905080341015610819576000915050610b65565b60008087815260200190815260200160002060009054906101000a900473ffffffffffffffffffffffffffffffffffffffff1673ffffffffffffffffffffffffffffffffffffffff16638526690a868686336001610875610b7d565b8080602001806020018681526020018573ffffffffffffffffffffffffffffffffffffffff1673ffffffffffffffffffffffffffffffffffffffff16815260200184151515158152602001838103835288818151815260200191508051906020019080838360005b838110156108f85780820151818401526020810190506108dd565b50505050905090810190601f1680156109255780820380516001836020036101000a031916815260200191505b50838103825287818151815260200191508051906020019080838360005b8381101561095e578082015181840152602081019050610943565b50505050905090810190601f16801561098b5780820380516001836020036101000a031916815260200191505b50975050505050505050604051809103906000f0801580156109b1573d6000803e3d6000fd5b506040518263ffffffff167c0100000000000000000000000000000000000000000000000000000000028152600401808273ffffffffffffffffffffffffffffffffffffffff1673ffffffffffffffffffffffffffffffffffffffff168152602001915050600060405180830381600087803b158015610a3057600080fd5b505af1158015610a44573d6000803e3d6000fd5b5050505060008087815260200190815260200160002060009054906101000a900473ffffffffffffffffffffffffffffffffffffffff1673ffffffffffffffffffffffffffffffffffffffff1663893d20e86040518163ffffffff167c0100000000000000000000000000000000000000000000000000000000028152600401602060405180830381600087803b158015610ade57600080fd5b505af1158015610af2573d6000803e3d6000fd5b505050506040513d6020811015610b0857600080fd5b810190808051906020019092919050505073ffffffffffffffffffffffffffffffffffffffff166108fc829081150290604051600060405180830381858888f19350505050158015610b5e573d6000803e3d6000fd5b5060019150505b949350505050565b604051610a7280610b8e83390190565b60405161038f806116008339019056fe6080604052604051610a72380380610a728339810180604052606081101561002657600080fd5b81019080805164010000000081111561003e57600080fd5b8281019050602081018481111561005457600080fd5b815185600182028301116401000000008211171561007157600080fd5b50509291906020018051906020019092919080519060200190929190505050806000806101000a81548173ffffffffffffffffffffffffffffffffffffffff021916908373ffffffffffffffffffffffffffffffffffffffff1602179055508160018190555082600290805190602001906100ed9291906101d0565b5060008060006100fb610250565b8080602001806020018681526020018573ffffffffffffffffffffffffffffffffffffffff1673ffffffffffffffffffffffffffffffffffffffff1681526020018415151515815260200183810383526000815260200160200183810382526000815260200160200195505050505050604051809103906000f080158015610187573d6000803e3d6000fd5b50600360006101000a81548173ffffffffffffffffffffffffffffffffffffffff021916908373ffffffffffffffffffffffffffffffffffffffff160217905550505050610285565b828054600181600116156101000203166002900490600052602060002090601f016020900481019282601f1061021157805160ff191683800117855561023f565b8280016001018555821561023f579182015b8281111561023e578251825591602001919060010190610223565b5b50905061024c9190610260565b5090565b60405161038f806106e383390190565b61028291905b8082111561027e576000816000905550600101610266565b5090565b90565b61044f806102946000396000f3fe608060405260043610610077576000357c0100000000000000000000000000000000000000000000000000000000900463ffffffff16806252904d1461007c57806359dc735c146100a75780638526690a146100fe578063893d20e81461014f578063a6304952146101a6578063d7e8dd22146101d5575b600080fd5b34801561008857600080fd5b50610091610248565b6040518082815260200191505060405180910390f35b3480156100b357600080fd5b506100bc610252565b604051808273ffffffffffffffffffffffffffffffffffffffff1673ffffffffffffffffffffffffffffffffffffffff16815260200191505060405180910390f35b34801561010a57600080fd5b5061014d6004803603602081101561012157600080fd5b81019080803573ffffffffffffffffffffffffffffffffffffffff16906020019092919050505061027c565b005b34801561015b57600080fd5b506101646102c0565b604051808273ffffffffffffffffffffffffffffffffffffffff1673ffffffffffffffffffffffffffffffffffffffff16815260200191505060405180910390f35b3480156101b257600080fd5b506101bb6102e9565b604051808215151515815260200191505060405180910390f35b3480156101e157600080fd5b5061022e600480360360408110156101f857600080fd5b8101908080359060200190929190803573ffffffffffffffffffffffffffffffffffffffff1690602001909291905050506103b1565b604051808215151515815260200191505060405180910390f35b6000600154905090565b6000600360009054906101000a900473ffffffffffffffffffffffffffffffffffffffff16905090565b80600360006101000a81548173ffffffffffffffffffffffffffffffffffffffff021916908373ffffffffffffffffffffffffffffffffffffffff16021790555050565b60008060009054906101000a900473ffffffffffffffffffffffffffffffffffffffff16905090565b6000600360009054906101000a900473ffffffffffffffffffffffffffffffffffffffff1673ffffffffffffffffffffffffffffffffffffffff16631d57a64f6040518163ffffffff167c0100000000000000000000000000000000000000000000000000000000028152600401602060405180830381600087803b15801561037157600080fd5b505af1158015610385573d6000803e3d6000fd5b505050506040513d602081101561039b57600080fd5b8101908080519060200190929190505050905090565b60008173ffffffffffffffffffffffffffffffffffffffff166000809054906101000a900473ffffffffffffffffffffffffffffffffffffffff1673ffffffffffffffffffffffffffffffffffffffff16141561041857826001819055506001905061041d565b600090505b9291505056fea165627a7a72305820a36a12c1e0074cacd3cbfeff880920acadae7fb9233a59f7ae22de75a150eb4e0029608060405234801561001057600080fd5b5060405161038f38038061038f833981018060405260a081101561003357600080fd5b81019080805164010000000081111561004b57600080fd5b8281019050602081018481111561006157600080fd5b815185600182028301116401000000008211171561007e57600080fd5b5050929190602001805164010000000081111561009a57600080fd5b828101905060208101848111156100b057600080fd5b81518560018202830111640100000000821117156100cd57600080fd5b5050929190602001805190602001909291908051906020019092919080519060200190929190505050846000908051906020019061010c929190610197565b508360019080519060200190610123929190610197565b5080600260006101000a81548160ff0219169083151502179055508260048190555081600560006101000a81548173ffffffffffffffffffffffffffffffffffffffff021916908373ffffffffffffffffffffffffffffffffffffffff16021790555042600381905550505050505061023c565b828054600181600116156101000203166002900490600052602060002090601f016020900481019282601f106101d857805160ff1916838001178555610206565b82800160010185558215610206579182015b828111156102055782518255916020019190600101906101ea565b5b5090506102139190610217565b5090565b61023991905b8082111561023557600081600090555060010161021d565b5090565b90565b6101448061024b6000396000f3fe60806040526004361061004c576000357c0100000000000000000000000000000000000000000000000000000000900463ffffffff1680631d57a64f1461005157806338cc483114610080575b600080fd5b34801561005d57600080fd5b506100666100d7565b604051808215151515815260200191505060405180910390f35b34801561008c57600080fd5b506100956100ee565b604051808273ffffffffffffffffffffffffffffffffffffffff1673ffffffffffffffffffffffffffffffffffffffff16815260200191505060405180910390f35b6000600260009054906101000a900460ff16905090565b6000600560009054906101000a900473ffffffffffffffffffffffffffffffffffffffff1690509056fea165627a7a723058201a9ef42e5b0c95a722031edcf89330a61d663830617aff60b47f790e5fa866820029608060405234801561001057600080fd5b5060405161038f38038061038f833981018060405260a081101561003357600080fd5b81019080805164010000000081111561004b57600080fd5b8281019050602081018481111561006157600080fd5b815185600182028301116401000000008211171561007e57600080fd5b5050929190602001805164010000000081111561009a57600080fd5b828101905060208101848111156100b057600080fd5b81518560018202830111640100000000821117156100cd57600080fd5b5050929190602001805190602001909291908051906020019092919080519060200190929190505050846000908051906020019061010c929190610197565b508360019080519060200190610123929190610197565b5080600260006101000a81548160ff0219169083151502179055508260048190555081600560006101000a81548173ffffffffffffffffffffffffffffffffffffffff021916908373ffffffffffffffffffffffffffffffffffffffff16021790555042600381905550505050505061023c565b828054600181600116156101000203166002900490600052602060002090601f016020900481019282601f106101d857805160ff1916838001178555610206565b82800160010185558215610206579182015b828111156102055782518255916020019190600101906101ea565b5b5090506102139190610217565b5090565b61023991905b8082111561023557600081600090555060010161021d565b5090565b90565b6101448061024b6000396000f3fe60806040526004361061004c576000357c0100000000000000000000000000000000000000000000000000000000900463ffffffff1680631d57a64f1461005157806338cc483114610080575b600080fd5b34801561005d57600080fd5b506100666100d7565b604051808215151515815260200191505060405180910390f35b34801561008c57600080fd5b506100956100ee565b604051808273ffffffffffffffffffffffffffffffffffffffff1673ffffffffffffffffffffffffffffffffffffffff16815260200191505060405180910390f35b6000600260009054906101000a900460ff16905090565b6000600560009054906101000a900473ffffffffffffffffffffffffffffffffffffffff1690509056fea165627a7a723058201a9ef42e5b0c95a722031edcf89330a61d663830617aff60b47f790e5fa866820029a165627a7a72305820b11366985dfbf2e504458ad928f92acf15f1bc0f2c78ad88ce0c5ea27b146c6d0029",
  "source": "pragma solidity ^0.5.0;\r\n\r\nimport \"./Parking.sol\";\r\n\r\ncontract RentableParking {\r\n    constructor() public{\r\n\r\n    }\r\n    mapping(uint => Parking) mapParking;\r\n    mapping(uint => bool) registeredParking;\r\n\r\n    function registerParking(uint id, string memory description, uint pricePerDay) public returns(bool){\r\n        if(!registeredParking[id])\r\n        {\r\n            mapParking[id] = new Parking(description,pricePerDay,msg.sender);\r\n            registeredParking[id] = true;\r\n            return true;\r\n        }\r\n        return false;\r\n    }\r\n\r\n    function unregisterParking(uint id) public returns(bool){\r\n        if(registeredParking[id] && mapParking[id].isRented())\r\n            return false;\r\n        if(!registeredParking[id])\r\n            return false;\r\n        delete mapParking[id];\r\n        registeredParking[id] = false;\r\n        return true;\r\n    }\r\n    function rentParking(uint id,string memory firstname,string memory lastname,uint noDays) payable public returns(bool){\r\n        if(mapParking[id].isRented())\r\n            return false;\r\n        uint sumToPay = noDays * mapParking[id].getPricePerDay();\r\n        if(msg.value < sumToPay)\r\n            return false;\r\n        mapParking[id].setClient(new Client(firstname,lastname,noDays,msg.sender,true));\r\n        mapParking[id].getOwner().transfer(sumToPay);\r\n        return true;\r\n    }\r\n}\r\n",
  "sourcePath": "F:/DAPP/contracts/RentableParking.sol",
  "compiler": {
    "name": "solc",
    "version": "0.5.0+commit.1d4f565a.Emscripten.clang"
  },
  "schemaVersion": "3.0.9",
  "updatedAt": "2019-05-04T20:45:57.594Z",
  "devdoc": {
    "methods": {}
  },
  "userdoc": {
    "methods": {}
  }
}