{
  "contractName": "RentableParking",
  "abi": [
    {
      "constant": true,
      "inputs": [
        {
          "name": "",
          "type": "uint256"
        }
      ],
      "name": "isRegistered",
      "outputs": [
        {
          "name": "",
          "type": "bool"
        }
      ],
      "payable": false,
      "stateMutability": "view",
      "type": "function"
    },
    {
      "constant": true,
      "inputs": [
        {
          "name": "",
          "type": "uint256"
        }
      ],
      "name": "pricesPerDay",
      "outputs": [
        {
          "name": "",
          "type": "uint256"
        }
      ],
      "payable": false,
      "stateMutability": "view",
      "type": "function"
    },
    {
      "inputs": [],
      "payable": false,
      "stateMutability": "nonpayable",
      "type": "constructor"
    },
    {
      "anonymous": false,
      "inputs": [],
      "name": "RentEvent",
      "type": "event"
    },
    {
      "constant": false,
      "inputs": [
        {
          "name": "id",
          "type": "uint256"
        },
        {
          "name": "_pricePerDay",
          "type": "uint256"
        },
        {
          "name": "_description",
          "type": "string"
        }
      ],
      "name": "registerNewParking",
      "outputs": [
        {
          "name": "",
          "type": "bool"
        }
      ],
      "payable": false,
      "stateMutability": "nonpayable",
      "type": "function"
    },
    {
      "constant": false,
      "inputs": [
        {
          "name": "id",
          "type": "uint256"
        },
        {
          "name": "_firstname",
          "type": "string"
        },
        {
          "name": "_lastname",
          "type": "string"
        },
        {
          "name": "_noDays",
          "type": "uint256"
        }
      ],
      "name": "rentASpot",
      "outputs": [
        {
          "name": "",
          "type": "bool"
        }
      ],
      "payable": true,
      "stateMutability": "payable",
      "type": "function"
    }
  ],
  "bytecode": "0x608060405234801561001057600080fd5b50610973806100206000396000f3fe608060405260043610610062576000357c0100000000000000000000000000000000000000000000000000000000900463ffffffff16806312010ac714610067578063579a69881461015b578063b2fa60df146101ae578063feee5cf81461032c575b600080fd5b34801561007357600080fd5b506101416004803603606081101561008a57600080fd5b810190808035906020019092919080359060200190929190803590602001906401000000008111156100bb57600080fd5b8201836020820111156100cd57600080fd5b803590602001918460018302840111640100000000831117156100ef57600080fd5b91908080601f016020809104026020016040519081016040528093929190818152602001838380828437600081840152601f19601f82011690508083019250505050505050919291929050505061037b565b604051808215151515815260200191505060405180910390f35b34801561016757600080fd5b506101946004803603602081101561017e57600080fd5b81019080803590602001909291905050506105eb565b604051808215151515815260200191505060405180910390f35b610312600480360360808110156101c457600080fd5b8101908080359060200190929190803590602001906401000000008111156101eb57600080fd5b8201836020820111156101fd57600080fd5b8035906020019184600183028401116401000000008311171561021f57600080fd5b91908080601f016020809104026020016040519081016040528093929190818152602001838380828437600081840152601f19601f8201169050808301925050505050505091929192908035906020019064010000000081111561028257600080fd5b82018360208201111561029457600080fd5b803590602001918460018302840111640100000000831117156102b657600080fd5b91908080601f016020809104026020016040519081016040528093929190818152602001838380828437600081840152601f19601f8201169050808301925050505050505091929192908035906020019092919050505061060b565b604051808215151515815260200191505060405180910390f35b34801561033857600080fd5b506103656004803603602081101561034f57600080fd5b810190808035906020019092919050505061083b565b6040518082815260200191505060405180910390f35b60006001600085815260200190815260200160002060009054906101000a900460ff1615156105df576103ac610853565b60c060405190810160405280602060405190810160405280600081525081526020016020604051908101604052806000815250815260200160001515815260200142815260200160008152602001600073ffffffffffffffffffffffffffffffffffffffff1681525090506080604051908101604052803373ffffffffffffffffffffffffffffffffffffffff1681526020018581526020018481526020018281525060008087815260200190815260200160002060008201518160000160006101000a81548173ffffffffffffffffffffffffffffffffffffffff021916908373ffffffffffffffffffffffffffffffffffffffff1602179055506020820151816001015560408201518160020190805190602001906104ce9291906108a2565b5060608201518160030160008201518160000190805190602001906104f49291906108a2565b5060208201518160010190805190602001906105119291906108a2565b5060408201518160020160006101000a81548160ff021916908315150217905550606082015181600301556080820151816004015560a08201518160050160006101000a81548173ffffffffffffffffffffffffffffffffffffffff021916908373ffffffffffffffffffffffffffffffffffffffff1602179055505050905050600180600087815260200190815260200160002060006101000a81548160ff02191690831515021790555083600260008781526020019081526020016000208190555060019150506105e4565b600080fd5b9392505050565b60016020528060005260406000206000915054906101000a900460ff1681565b600080600086815260200190815260200160002060030160020160009054906101000a900460ff161561063d57600080fd5b600080600087815260200190815260200160002060010154830290508034101561066657600080fd5b61066e610853565b60c0604051908101604052808781526020018681526020016001151581526020014281526020018581526020013373ffffffffffffffffffffffffffffffffffffffff1681525090508060008089815260200190815260200160002060030160008201518160000190805190602001906106e99291906108a2565b5060208201518160010190805190602001906107069291906108a2565b5060408201518160020160006101000a81548160ff021916908315150217905550606082015181600301556080820151816004015560a08201518160050160006101000a81548173ffffffffffffffffffffffffffffffffffffffff021916908373ffffffffffffffffffffffffffffffffffffffff16021790555090505060008088815260200190815260200160002060000160009054906101000a900473ffffffffffffffffffffffffffffffffffffffff1673ffffffffffffffffffffffffffffffffffffffff166108fc839081150290604051600060405180830381858888f19350505050158015610800573d6000803e3d6000fd5b507fa5a79cb1f95935f31bbae187273d06dbcac3ede31a5fe8fbd6f6f0b23894e9cf60405160405180910390a1600192505050949350505050565b60026020528060005260406000206000915090505481565b60c06040519081016040528060608152602001606081526020016000151581526020016000815260200160008152602001600073ffffffffffffffffffffffffffffffffffffffff1681525090565b828054600181600116156101000203166002900490600052602060002090601f016020900481019282601f106108e357805160ff1916838001178555610911565b82800160010185558215610911579182015b828111156109105782518255916020019190600101906108f5565b5b50905061091e9190610922565b5090565b61094491905b80821115610940576000816000905550600101610928565b5090565b9056fea165627a7a7230582027364d84ebfa3303246c12708f022cc913eebe370f6ca0dfddd0d740cb555bd20029",
  "source": "pragma solidity ^0.5.0;\r\n\r\ncontract RentableParking {\r\n    struct Client {\r\n        string firstname;\r\n        string lastname;\r\n        bool exists;\r\n        uint startDate;\r\n        uint noDays;\r\n        address owner;\r\n    }\r\n\r\n    struct Parking {\r\n        address payable owner;\r\n        uint pricePerDay;\r\n        string description;\r\n        Client client;\r\n    }\r\n\r\n    mapping(uint => Parking) registeredParkings;\r\n    mapping(uint => bool) public isRegistered;\r\n    mapping(uint => uint)  public pricesPerDay;\r\n    event RentEvent();\r\n    function registerNewParking(uint id, uint _pricePerDay, string memory _description) public returns (bool){\r\n        if (!isRegistered[id]) {\r\n\r\n            Client memory dummyClient = Client({firstname : \"\", lastname : \"\", exists : false, startDate : now, noDays : 0, owner : address(0)});\r\n            registeredParkings[id] = Parking({owner : msg.sender, pricePerDay : _pricePerDay, description : _description, client : dummyClient});\r\n            isRegistered[id] = true;\r\n            pricesPerDay[id] = _pricePerDay;\r\n            return true;\r\n        }\r\n        revert();\r\n        return false;\r\n    }\r\n\r\n    function rentASpot(uint id,string memory _firstname,string memory _lastname,uint _noDays)public payable returns (bool){\r\n        if (registeredParkings[id].client.exists){\r\n            revert();\r\n            return false;\r\n        }\r\n        uint sumToPay = _noDays * registeredParkings[id].pricePerDay;\r\n\r\n        if (msg.value < sumToPay)\r\n        {\r\n            revert();\r\n            return false;\r\n        }\r\n        Client memory dummyClient = Client({firstname : _firstname, lastname : _lastname, exists : true, startDate : now, noDays : _noDays, owner : msg.sender});\r\n        registeredParkings[id].client = dummyClient;\r\n        registeredParkings[id].owner.transfer(sumToPay);\r\n        emit RentEvent();\r\n        return true;\r\n        }\r\n\r\nconstructor() public{\r\n}\r\n}\r\n",
  "sourcePath": "F:/DAPP/contracts/RentableParking.sol",
  "compiler": {
    "name": "solc",
    "version": "0.5.0+commit.1d4f565a.Emscripten.clang"
  },
  "schemaVersion": "3.0.9",
  "updatedAt": "2019-05-05T14:17:13.202Z",
  "devdoc": {
    "methods": {}
  },
  "userdoc": {
    "methods": {}
  }
}