{
  "contractName": "RentableParking",
  "abi": [
    {
      "constant": false,
      "inputs": [
        {
          "name": "_description",
          "type": "string"
        },
        {
          "name": "_pricePerDay",
          "type": "uint256"
        }
      ],
      "name": "addSpot",
      "outputs": [],
      "payable": false,
      "stateMutability": "nonpayable",
      "type": "function"
    },
    {
      "constant": true,
      "inputs": [
        {
          "name": "id",
          "type": "uint256"
        }
      ],
      "name": "getDescription",
      "outputs": [
        {
          "name": "",
          "type": "string"
        }
      ],
      "payable": false,
      "stateMutability": "view",
      "type": "function"
    },
    {
      "constant": true,
      "inputs": [
        {
          "name": "id",
          "type": "uint256"
        }
      ],
      "name": "isReclaimable",
      "outputs": [
        {
          "name": "",
          "type": "bool"
        }
      ],
      "payable": false,
      "stateMutability": "view",
      "type": "function"
    },
    {
      "constant": true,
      "inputs": [
        {
          "name": "id",
          "type": "uint256"
        }
      ],
      "name": "getPricePerDay",
      "outputs": [
        {
          "name": "",
          "type": "uint256"
        }
      ],
      "payable": false,
      "stateMutability": "view",
      "type": "function"
    },
    {
      "constant": true,
      "inputs": [],
      "name": "lastIndex",
      "outputs": [
        {
          "name": "",
          "type": "uint256"
        }
      ],
      "payable": false,
      "stateMutability": "view",
      "type": "function"
    },
    {
      "inputs": [],
      "payable": false,
      "stateMutability": "nonpayable",
      "type": "constructor"
    },
    {
      "anonymous": false,
      "inputs": [
        {
          "indexed": false,
          "name": "sumToPay",
          "type": "uint256"
        },
        {
          "indexed": false,
          "name": "receiver",
          "type": "address"
        },
        {
          "indexed": false,
          "name": "sender",
          "type": "address"
        }
      ],
      "name": "RentEvent",
      "type": "event"
    },
    {
      "constant": false,
      "inputs": [
        {
          "name": "id",
          "type": "uint256"
        }
      ],
      "name": "reclaimSpot",
      "outputs": [
        {
          "name": "",
          "type": "bool"
        }
      ],
      "payable": false,
      "stateMutability": "nonpayable",
      "type": "function"
    },
    {
      "constant": true,
      "inputs": [
        {
          "name": "id",
          "type": "uint256"
        }
      ],
      "name": "isRented",
      "outputs": [
        {
          "name": "",
          "type": "bool"
        }
      ],
      "payable": false,
      "stateMutability": "view",
      "type": "function"
    },
    {
      "constant": false,
      "inputs": [
        {
          "name": "id",
          "type": "uint256"
        },
        {
          "name": "_firstname",
          "type": "string"
        },
        {
          "name": "_lastname",
          "type": "string"
        },
        {
          "name": "_noDays",
          "type": "uint256"
        }
      ],
      "name": "rentASpot",
      "outputs": [
        {
          "name": "",
          "type": "bool"
        }
      ],
      "payable": true,
      "stateMutability": "payable",
      "type": "function"
    }
  ],
  "bytecode": "0x608060405234801561001057600080fd5b506000600181905550610e8e806100286000396000f3fe60806040526004361061008e576000357c0100000000000000000000000000000000000000000000000000000000900463ffffffff1680632dad3451146100935780634925ec5514610165578063668db319146102195780638735386c1461026c57806395a9b50c146102bb578063aa15d40f1461030e578063b2fa60df14610361578063f3f6f0d7146104df575b600080fd5b34801561009f57600080fd5b50610163600480360360408110156100b657600080fd5b81019080803590602001906401000000008111156100d357600080fd5b8201836020820111156100e557600080fd5b8035906020019184600183028401116401000000008311171561010757600080fd5b91908080601f016020809104026020016040519081016040528093929190818152602001838380828437600081840152601f19601f8201169050808301925050505050505091929192908035906020019092919050505061050a565b005b34801561017157600080fd5b5061019e6004803603602081101561018857600080fd5b810190808035906020019092919050505061070a565b6040518080602001828103825283818151815260200191508051906020019080838360005b838110156101de5780820151818401526020810190506101c3565b50505050905090810190601f16801561020b5780820380516001836020036101000a031916815260200191505b509250505060405180910390f35b34801561022557600080fd5b506102526004803603602081101561023c57600080fd5b81019080803590602001909291905050506107c1565b604051808215151515815260200191505060405180910390f35b34801561027857600080fd5b506102a56004803603602081101561028f57600080fd5b8101908080359060200190929190505050610808565b6040518082815260200191505060405180910390f35b3480156102c757600080fd5b506102f4600480360360208110156102de57600080fd5b8101908080359060200190929190505050610827565b604051808215151515815260200191505060405180910390f35b34801561031a57600080fd5b506103476004803603602081101561033157600080fd5b8101908080359060200190929190505050610a31565b604051808215151515815260200191505060405180910390f35b6104c56004803603608081101561037757600080fd5b81019080803590602001909291908035906020019064010000000081111561039e57600080fd5b8201836020820111156103b057600080fd5b803590602001918460018302840111640100000000831117156103d257600080fd5b91908080601f016020809104026020016040519081016040528093929190818152602001838380828437600081840152601f19601f8201169050808301925050505050505091929192908035906020019064010000000081111561043557600080fd5b82018360208201111561044757600080fd5b8035906020019184600183028401116401000000008311171561046957600080fd5b91908080601f016020809104026020016040519081016040528093929190818152602001838380828437600081840152601f19601f82011690508083019250505050505050919291929080359060200190929190505050610a60565b604051808215151515815260200191505060405180910390f35b3480156104eb57600080fd5b506104f4610d68565b6040518082815260200191505060405180910390f35b610512610d6e565b60c060405190810160405280602060405190810160405280600081525081526020016020604051908101604052806000815250815260200160001515815260200142815260200160008152602001600073ffffffffffffffffffffffffffffffffffffffff1681525090506080604051908101604052803373ffffffffffffffffffffffffffffffffffffffff16815260200183815260200184815260200182815250600080600154815260200190815260200160002060008201518160000160006101000a81548173ffffffffffffffffffffffffffffffffffffffff021916908373ffffffffffffffffffffffffffffffffffffffff160217905550602082015181600101556040820151816002019080519060200190610636929190610dbd565b50606082015181600301600082015181600001908051906020019061065c929190610dbd565b506020820151816001019080519060200190610679929190610dbd565b5060408201518160020160006101000a81548160ff021916908315150217905550606082015181600301556080820151816004015560a08201518160050160006101000a81548173ffffffffffffffffffffffffffffffffffffffff021916908373ffffffffffffffffffffffffffffffffffffffff16021790555050509050506001805401600181905550505050565b60606000808381526020019081526020016000206002018054600181600116156101000203166002900480601f0160208091040260200160405190810160405280929190818152602001828054600181600116156101000203166002900480156107b55780601f1061078a576101008083540402835291602001916107b5565b820191906000526020600020905b81548152906001019060200180831161079857829003601f168201915b50505050509050919050565b600080600a90506000808481526020019081526020016000206003016004015481026000808581526020019081526020016000206003016003015442031015915050919050565b6000806000838152602001908152602001600020600101549050919050565b600080600083815260200190815260200160002060000160009054906101000a900473ffffffffffffffffffffffffffffffffffffffff163373ffffffffffffffffffffffffffffffffffffffff168173ffffffffffffffffffffffffffffffffffffffff1614151561089957600080fd5b826000600a9050600080838152602001908152602001600020600301600401548102600080848152602001908152602001600020600301600301544203101515156108e357600080fd5b6108eb610d6e565b60c060405190810160405280602060405190810160405280600081525081526020016020604051908101604052806000815250815260200160001515815260200142815260200160008152602001600073ffffffffffffffffffffffffffffffffffffffff168152509050806000808881526020019081526020016000206003016000820151816000019080519060200190610988929190610dbd565b5060208201518160010190805190602001906109a5929190610dbd565b5060408201518160020160006101000a81548160ff021916908315150217905550606082015181600301556080820151816004015560a08201518160050160006101000a81548173ffffffffffffffffffffffffffffffffffffffff021916908373ffffffffffffffffffffffffffffffffffffffff1602179055509050506001945050505050919050565b600080600083815260200190815260200160002060030160020160009054906101000a900460ff169050919050565b600084610a6c81610a31565b151515610a7857600080fd5b6000806000888152602001908152602001600020600101548402905080341015610aa157600080fd5b610aa9610d6e565b60c0604051908101604052808881526020018781526020016001151581526020014281526020018681526020013373ffffffffffffffffffffffffffffffffffffffff168152509050806000808a81526020019081526020016000206003016000820151816000019080519060200190610b24929190610dbd565b506020820151816001019080519060200190610b41929190610dbd565b5060408201518160020160006101000a81548160ff021916908315150217905550606082015181600301556080820151816004015560a08201518160050160006101000a81548173ffffffffffffffffffffffffffffffffffffffff021916908373ffffffffffffffffffffffffffffffffffffffff16021790555090505060008089815260200190815260200160002060000160009054906101000a900473ffffffffffffffffffffffffffffffffffffffff1673ffffffffffffffffffffffffffffffffffffffff166108fc839081150290604051600060405180830381858888f19350505050158015610c3b573d6000803e3d6000fd5b503373ffffffffffffffffffffffffffffffffffffffff166108fc8334039081150290604051600060405180830381858888f19350505050158015610c84573d6000803e3d6000fd5b507f738ec68dc64fabb4ab360d1d025d2b989f5d9dedcf384033e7423b41606efabc826000808b815260200190815260200160002060000160009054906101000a900473ffffffffffffffffffffffffffffffffffffffff1633604051808481526020018373ffffffffffffffffffffffffffffffffffffffff1673ffffffffffffffffffffffffffffffffffffffff1681526020018273ffffffffffffffffffffffffffffffffffffffff1673ffffffffffffffffffffffffffffffffffffffff168152602001935050505060405180910390a160019350505050949350505050565b60015481565b60c06040519081016040528060608152602001606081526020016000151581526020016000815260200160008152602001600073ffffffffffffffffffffffffffffffffffffffff1681525090565b828054600181600116156101000203166002900490600052602060002090601f016020900481019282601f10610dfe57805160ff1916838001178555610e2c565b82800160010185558215610e2c579182015b82811115610e2b578251825591602001919060010190610e10565b5b509050610e399190610e3d565b5090565b610e5f91905b80821115610e5b576000816000905550600101610e43565b5090565b9056fea165627a7a72305820fc685057420192938e3b58dc3fc5f3ace99a07e7cd7b9342606f15a4d6009bdc0029",
  "source": "pragma solidity ^0.5.0;\r\n\r\nimport \"./SpotsStorage.sol\";\r\n\r\ncontract RentableParking is SpotsStorage{\r\n\r\nconstructor() public{\r\n}\r\n    modifier onlyBy(address owner){\r\n        require(owner == msg.sender);\r\n        _;\r\n    }\r\n    modifier itsTime(uint id){\r\n        uint day = 10;\r\n        require(now-spotsStorage[id].client.startDate>=day*spotsStorage[id].client.noDays);\r\n        _;\r\n    }\r\n    function reclaimSpot(uint id) public onlyBy(spotsStorage[id].owner) itsTime(id) returns(bool){\r\n        Client memory dummyClient = Client({firstname : \"\", lastname : \"\", exists : false, startDate : now, noDays : 0, owner : address(0)});\r\n        spotsStorage[id].client = dummyClient;\r\n        return true;\r\n    }\r\n    function isRented(uint id) public view returns(bool){\r\n        return spotsStorage[id].client.exists;\r\n    }\r\n    modifier isNotRented(uint id){\r\n        require(!isRented(id));\r\n        _;\r\n    }\r\n    event RentEvent(uint sumToPay,address receiver, address sender);\r\n    function rentASpot(uint id,string memory _firstname,string memory _lastname,uint _noDays)public isNotRented(id) payable returns (bool){\r\n        uint sumToPay = _noDays * spotsStorage[id].pricePerDay;\r\n        if (msg.value < sumToPay)\r\n        {\r\n            revert();\r\n            return false;\r\n        }\r\n        Client memory dummyClient = Client({firstname : _firstname, lastname : _lastname, exists : true, startDate : now, noDays : _noDays, owner : msg.sender});\r\n        spotsStorage[id].client = dummyClient;\r\n        spotsStorage[id].owner.transfer(sumToPay);\r\n        msg.sender.transfer(msg.value-sumToPay);\r\n        emit RentEvent(sumToPay,spotsStorage[id].owner,msg.sender);\r\n        return true;\r\n    }\r\n}\r\n",
  "sourcePath": "F:/DAPP/contracts/RentableParking.sol",
  "compiler": {
    "name": "solc",
    "version": "0.5.0+commit.1d4f565a.Emscripten.clang"
  },
  "schemaVersion": "3.0.9",
  "updatedAt": "2019-05-06T17:54:16.925Z",
  "devdoc": {
    "methods": {}
  },
  "userdoc": {
    "methods": {}
  }
}