{
  "contractName": "SpotsStorage",
  "abi": [
    {
      "constant": true,
      "inputs": [],
      "name": "lastIndex",
      "outputs": [
        {
          "name": "",
          "type": "uint256"
        }
      ],
      "payable": false,
      "stateMutability": "view",
      "type": "function"
    },
    {
      "inputs": [],
      "payable": false,
      "stateMutability": "nonpayable",
      "type": "constructor"
    },
    {
      "constant": false,
      "inputs": [
        {
          "name": "_description",
          "type": "string"
        },
        {
          "name": "_pricePerDay",
          "type": "uint256"
        }
      ],
      "name": "addSpot",
      "outputs": [],
      "payable": false,
      "stateMutability": "nonpayable",
      "type": "function"
    },
    {
      "constant": true,
      "inputs": [
        {
          "name": "id",
          "type": "uint256"
        }
      ],
      "name": "getDescription",
      "outputs": [
        {
          "name": "",
          "type": "string"
        }
      ],
      "payable": false,
      "stateMutability": "view",
      "type": "function"
    },
    {
      "constant": true,
      "inputs": [
        {
          "name": "id",
          "type": "uint256"
        }
      ],
      "name": "getPricePerDay",
      "outputs": [
        {
          "name": "",
          "type": "uint256"
        }
      ],
      "payable": false,
      "stateMutability": "view",
      "type": "function"
    },
    {
      "constant": true,
      "inputs": [
        {
          "name": "id",
          "type": "uint256"
        }
      ],
      "name": "isReclaimable",
      "outputs": [
        {
          "name": "",
          "type": "bool"
        }
      ],
      "payable": false,
      "stateMutability": "view",
      "type": "function"
    }
  ],
  "bytecode": "0x608060405234801561001057600080fd5b506000600181905550610708806100286000396000f3fe60806040526004361061006d576000357c0100000000000000000000000000000000000000000000000000000000900463ffffffff1680632dad3451146100725780634925ec5514610144578063668db319146101f85780638735386c1461024b578063f3f6f0d71461029a575b600080fd5b34801561007e57600080fd5b506101426004803603604081101561009557600080fd5b81019080803590602001906401000000008111156100b257600080fd5b8201836020820111156100c457600080fd5b803590602001918460018302840111640100000000831117156100e657600080fd5b91908080601f016020809104026020016040519081016040528093929190818152602001838380828437600081840152601f19601f820116905080830192505050505050509192919290803590602001909291905050506102c5565b005b34801561015057600080fd5b5061017d6004803603602081101561016757600080fd5b81019080803590602001909291905050506104c5565b6040518080602001828103825283818151815260200191508051906020019080838360005b838110156101bd5780820151818401526020810190506101a2565b50505050905090810190601f1680156101ea5780820380516001836020036101000a031916815260200191505b509250505060405180910390f35b34801561020457600080fd5b506102316004803603602081101561021b57600080fd5b810190808035906020019092919050505061057c565b604051808215151515815260200191505060405180910390f35b34801561025757600080fd5b506102846004803603602081101561026e57600080fd5b81019080803590602001909291905050506105c3565b6040518082815260200191505060405180910390f35b3480156102a657600080fd5b506102af6105e2565b6040518082815260200191505060405180910390f35b6102cd6105e8565b60c060405190810160405280602060405190810160405280600081525081526020016020604051908101604052806000815250815260200160001515815260200142815260200160008152602001600073ffffffffffffffffffffffffffffffffffffffff1681525090506080604051908101604052803373ffffffffffffffffffffffffffffffffffffffff16815260200183815260200184815260200182815250600080600154815260200190815260200160002060008201518160000160006101000a81548173ffffffffffffffffffffffffffffffffffffffff021916908373ffffffffffffffffffffffffffffffffffffffff1602179055506020820151816001015560408201518160020190805190602001906103f1929190610637565b506060820151816003016000820151816000019080519060200190610417929190610637565b506020820151816001019080519060200190610434929190610637565b5060408201518160020160006101000a81548160ff021916908315150217905550606082015181600301556080820151816004015560a08201518160050160006101000a81548173ffffffffffffffffffffffffffffffffffffffff021916908373ffffffffffffffffffffffffffffffffffffffff16021790555050509050506001805401600181905550505050565b60606000808381526020019081526020016000206002018054600181600116156101000203166002900480601f0160208091040260200160405190810160405280929190818152602001828054600181600116156101000203166002900480156105705780601f1061054557610100808354040283529160200191610570565b820191906000526020600020905b81548152906001019060200180831161055357829003601f168201915b50505050509050919050565b600080600a90506000808481526020019081526020016000206003016004015481026000808581526020019081526020016000206003016003015442031015915050919050565b6000806000838152602001908152602001600020600101549050919050565b60015481565b60c06040519081016040528060608152602001606081526020016000151581526020016000815260200160008152602001600073ffffffffffffffffffffffffffffffffffffffff1681525090565b828054600181600116156101000203166002900490600052602060002090601f016020900481019282601f1061067857805160ff19168380011785556106a6565b828001600101855582156106a6579182015b828111156106a557825182559160200191906001019061068a565b5b5090506106b391906106b7565b5090565b6106d991905b808211156106d55760008160009055506001016106bd565b5090565b9056fea165627a7a723058204e780d097db094fe276ec70a55ecbd249a80fd45722a1831f3389668017538e90029",
  "source": "pragma solidity ^0.5.0;\r\n\r\ncontract SpotsStorage {\r\n    struct Client {\r\n        string firstname;\r\n        string lastname;\r\n        bool exists;\r\n        uint startDate;\r\n        uint noDays;\r\n        address owner;\r\n    }\r\n\r\n    struct Parking {\r\n        address payable owner;\r\n        uint pricePerDay;\r\n        string description;\r\n        Client client;\r\n    }\r\n    constructor() public{\r\n        lastIndex = 0;\r\n    }\r\n    mapping(uint => Parking) spotsStorage;\r\n    uint public lastIndex;\r\n\r\n    function addSpot(string memory _description, uint _pricePerDay) public{\r\n        Client memory dummyClient = Client({firstname : \"\", lastname : \"\", exists : false, startDate : now, noDays : 0, owner : address(0)});\r\n        spotsStorage[lastIndex] = Parking({owner : msg.sender, pricePerDay : _pricePerDay, description : _description, client : dummyClient});\r\n        lastIndex = lastIndex + 1;\r\n    }\r\n    function getDescription(uint id) public view returns(string memory){\r\n        return spotsStorage[id].description;\r\n    }\r\n    function getPricePerDay(uint id) public view returns(uint){\r\n        return spotsStorage[id].pricePerDay;\r\n    }\r\n    function isReclaimable(uint id) public view returns(bool){\r\n        uint day = 10;\r\n        return (now-spotsStorage[id].client.startDate)>=day*spotsStorage[id].client.noDays;\r\n    }\r\n\r\n}\r\n",
  "sourcePath": "F:\\DAPP\\contracts\\SpotsStorage.sol",
  "compiler": {
    "name": "solc",
    "version": "0.5.0+commit.1d4f565a.Emscripten.clang"
  },
  "schemaVersion": "3.0.9",
  "updatedAt": "2019-05-06T17:54:16.255Z",
  "devdoc": {
    "methods": {}
  },
  "userdoc": {
    "methods": {}
  }
}